:100000000C9475030C949D030C949D030C949D0318
:100010000C949D030C949D030C949D030C949D03E0
:100020000C949D030C949D030C949D030C949D03D0
:100030000C949D030C949D030C949D030C949D03C0
:100040000C946B0E0C949D030C94560F0C94A80FFB
:100050000C949D030C949D030C949D030C949D03A0
:100060000C949D030C949D033C68746D6C3E3C683D
:100070006561643E3C7469746C653E54697A6F20B6
:100080004E756D6265727320436F6E74726F6C3C57
:100090002F7469746C653E3C626F64793E3C6831D4
:1000A0003E3C63656E7465723E54697A6F204E758E
:1000B0006D6265727320436F6E74726F6C20506155
:1000C0006E656C3C2F63656E7465723E3C2F6831C3
:1000D0003E3C666F726D20616374696F6E3D272FC1
:1000E00074697A6F27206D6574686F643D27504F7F
:1000F0005354273E3C703E3C703E3C703E3C636532
:100100006E7465723E43686F6F736520436F6C6FEA
:1001100072204D6F6465203C73656C656374206E5E
:10012000616D653D226D6F6465223C703E3C703EA2
:100130003C703E3C6F7074696F6E2076616C7565C3
:100140003D22313030223E4F66663C2F6F7074691D
:100150006F6E3E3C703E3C703E3C703E3C6F707437
:10016000696F6E2076616C75653D223131302220D9
:1001700073656C65637465643D2273656C65637457
:100180006564223E5265643C2F6F7074696F6E3EE9
:100190003C703E3C703E3C703E3C6F7074696F6ECC
:1001A0002076616C75653D22313230223E4F72619E
:1001B0006E67653C2F6F7074696F6E3E3C703E3C9D
:1001C000703E3C703E3C6F7074696F6E2076616C5F
:1001D00075653D22313330223E477265656E3C2F96
:1001E0006F7074696F6E3E3C703E3C703E3C703E7A
:1001F0003C6F7074696F6E2076616C75653D22315D
:100200003430223E5465616C3C2F6F7074696F6EA0
:100210003E3C703E3C703E3C703E3C6F7074696F7B
:100220006E2076616C75653D22313530223E426C20
:1002300075653C2F6F7074696F6E3E3C703E3C700C
:100240003E3C703E3C6F7074696F6E2076616C75D9
:10025000653D22313630223E56696F6C65743C2F05
:100260006F7074696F6E3E3C703E3C703E3C703EF9
:100270003C6F7074696F6E2076616C75653D2233DA
:100280003030223E5261696E626F77205472616E27
:10029000736974696F6E733C2F6F7074696F6E3E13
:1002A0003C703E3C703E3C703E3C6F7074696F6EBB
:1002B0002076616C75653D22333130223E52616992
:1002C0006E626F77204C6574746572733C2F6F702B
:1002D00074696F6E3E3C703E3C703E3C703E3C2FFD
:1002E00073656C6563743E3C2F703E3C2F703E43DB
:1002F000686F6F736520496E74657276616C2069F2
:100300006E205365636F6E6473203C73656C656328
:1003100074206E616D653D22696E74657276616CE4
:10032000223C703E3C703E3C703E3C6F7074696F86
:100330006E2076616C75653D2231223E696E737464
:10034000616E743C2F6F7074696F6E3E3C703E3C02
:10035000703E3C703E3C6F7074696F6E2076616CCD
:1003600075653D2235222073656C65637465643D57
:100370002273656C6563746564223E352073656322
:100380006F6E64733C2F6F7074696F6E3E3C703E8D
:100390003C703E3C703E3C6F7074696F6E207661BD
:1003A0006C75653D223130223E3130207365636FBC
:1003B0006E64733C2F6F7074696F6E3E3C703E3C90
:1003C000703E3C703E3C6F7074696F6E2076616C5D
:1003D00075653D223230223E3230207365636F6E88
:1003E00064733C2F6F7074696F6E3E3C703E3C705E
:1003F0003E3C703E3C6F7074696F6E2076616C7528
:10040000653D223330223E3330207365636F6E6466
:10041000733C2F6F7074696F6E3E3C703E3C703E53
:100420003C703E3C6F7074696F6E2076616C7565D0
:100430003D223630223E3630207365636F6E647322
:100440003C2F6F7074696F6E3E3C703E3C703E3C5A
:10045000703E3C6F7074696F6E2076616C75653D9F
:1004600022313230223E313230207365636F6E6448
:10047000733C2F6F7074696F6E3E3C703E3C703EF3
:100480003C703E3C2F73656C6563743E3C2F703E40
:100490003C2F703E3C494E50555420545950453DD8
:1004A0007375626D69742056414C55453D225375F4
:1004B000626D6974223E3C2F63656E7465723E3CCA
:1004C0002F666F726D3E3C2F626F64793E3C2F68E1
:1004D000746D6C3E005365727665723A20576562A2
:1004E0006475696E6F2F312E370D0A004C6F636192
:1004F00074696F6E3A2000485454502F312E3020CA
:1005000033303320536565204F746865720D0A00DF
:100510004163636573732D436F6E74726F6C2D410D
:100520006C6C6F772D4F726967696E3A202A0D0ADD
:10053000436F6E74656E742D547970653A2000486F
:100540005454502F312E3020323030204F4B0D0A72
:10055000000000010001001010020001000100B0C5
:10056000000000160000002800000010000000201D
:100570000000000100010000000000000000000079
:10058000000000000000000000000000000000006B
:10059000000000FF000000FFFF0000FFFF0000FF61
:1005A000FF0000CFBF0000C7BF0000C3BF0000C1F5
:1005B000BF0000C0BF000000000000C0BF0000C1BD
:1005C000BF0000C3BF0000C7BF0000CFBF0000FFD7
:1005D000FF0000FFFF00000000000000000000001E
:1005E000000000000000000000000000000000000B
:1005F00000000000000000000000000000000000FB
:1006000000000000000000000000000000000000EA
:1006100000000000000000557365722D6167656E73
:10062000743A202A0D0A446973616C6C6F773A2022
:100630002F0D0A00436F6E74656E742D54797065CA
:100640003A20746578742F68746D6C0D0A0D0A3C3D
:1006500068313E45504943204641494C3C2F683162
:100660003E00485454502F312E3020343030204238
:10067000616420526571756573740D0A0000000095
:1006800000240027002A0000000000250028002B7D
:1006900000000000002300260029000404040404D4
:1006A000040404020202020202030303030303011F
:1006B00002040810204080010204081020010204F6
:1006C00008102000000007000201000003040600DB
:1006D00000000000000000004E0E171179111E13DB
:1006E000EB14E316BC18D522372311241FBECFEF1D
:1006F000D8E0DEBFCDBF12E0A0E0B1E0EEE4FDE463
:1007000002C005900D92AE37B107D9F714E0AEE7FD
:10071000B2E001C01D92A935B107E1F716E0CAEEBB
:10072000D6E004C02297FE010E94A126C83DD10751
:10073000C9F70E94FC120C949D040C940000A0E0E8
:10074000B0E0E5EAF3E00C946926EC012B016A01C4
:100750006115710519F0FB0191838083C114D104E7
:1007600049F0C6010297839728F020E030E040E08E
:1007700050E0DCC0A9908A2D90E00E94F525892BDD
:10078000C9F7FDE2AF1621F4A9903324339405C0D4
:100790008BE2A81609F4A9903324C114D10421F0E6
:1007A000E0E1CE16D10411F5F0E3AF1669F48881CB
:1007B000883711F0883541F4A980229682E0382AE2
:1007C00020E1C22ED12C12C0C114D10479F4E0E38F
:1007D000AE1659F199E9E92E99E9F92E99E9092F0F
:1007E00099E1192F8AE0C82ED12C3AC0FAE0CF1631
:1007F000D10491F080E1C816D10429F0E8E0CE16CA
:10080000D104F9F415C0BFEFEB2EBFEFFB2EBFEF05
:100810000B2FBFE01B2F24C0A9E9EA2EA9E9FA2E6D
:10082000A9E90A2FA9E11A2F1BC0F8E0CF2ED12C7D
:10083000EFEFEE2EEFEFFE2EEFEF0E2FEFE11E2F7C
:100840000FC09601442737FD4095542F6FEF7FEF7F
:100850008FEF9FEF0E944626C901DA017C018D01CE
:1008600020E030E040E050E060E03601882477FC92
:100870008094982C70EDB72EBA0CF9E0FB1570F44B
:100880008A2D81548A3118F499ECB92E06C08A2D2C
:1008900081568A3148F589EAB82EBA0C8B2D90E042
:1008A0008C159D050CF56F3FE9F0E216F306040781
:1008B0001507B8F0CA01B901A40193010E940026EE
:1008C0009B01AC018B2D90E0A0E0B0E0280F391F18
:1008D0004A1F5B1F281739074A075B0710F061E0C2
:1008E00001C06FEFA990C6CF4114510451F06623A7
:1008F00011F0219703C031FE04C02297F201D18389
:10090000C08330FE07C050954095309521953F4FEC
:100910004F4F5F4F67FF0AC082E290E09093580408
:10092000809357042FEF3FEF4FEF5FEFB901CA01FC
:10093000CDB7DEB7E1E10C948526F8940C94A5269A
:10094000DC0101C06D9341505040E0F70895FC0177
:100950008191861721F08823D9F799270895319737
:10096000CF010895FB01DC018D91019080190110E8
:10097000D9F3990B0895FB01DC014150504030F050
:100980008D910190801919F40020B9F7881B990BFB
:100990000895EF92FF920F931F93CF93DF937C0103
:1009A0008B01EA010EC0F8010F5F1F4F4491F70160
:1009B000A081B1812D913C91C701642FF901099566
:1009C0002197209781F7DF91CF911F910F91FF9091
:1009D000EF9008950F931F93CF93DF938C01EB015A
:1009E000FE0121966491662349F0D801ED91FC91B6
:1009F0000190F081E02DC8010995F2CFDF91CF91F0
:100A00001F910F9108950F931F938C0162E676E07A
:100A10000E94EA04C80165ED74E00E94EA04C8017E
:100A200064E376E00E94EA041F910F9108950E940A
:100A3000030508959C01220F232F221F330B3195AC
:100A40002130310571F02130310520F0223031059F
:100A5000A9F40EC0682F60956F77482F4F7720E07C
:100A60000DC0482F40954F77282F2F7760E006C0A4
:100A7000282F20952F77682F6F7740E08EE393E043
:100A80000E94C51E08956F927F928F929F92AF929F
:100A9000BF92CF92DF92EF92FF920F931F93CF936B
:100AA000DF935B016C01C0E0D0E0E42EFF2400E0A6
:100AB00010E02BC00E94B30E9B01AC0180913A0361
:100AC00090913B03A0913C03B0913D0339014A0151
:100AD000681A790A8A0A9B0AE614F70408051905B8
:100AE00098F420933A0330933B0340933C03509394
:100AF0003D038EE393E0BE01A60195010E94E91E2D
:100B00008EE393E00E94711F21968EE393E00E9492
:100B1000C11EC817D90770F2DF91CF911F910F91B5
:100B2000FF90EF90DF90CF90BF90AF909F908F900D
:100B30007F906F9008956F927F928F929F92AF9265
:100B4000BF92CF92DF92EF92FF920F931F93CF93BA
:100B5000DF9300E010E0A82EBB24CC24DD2450C09D
:100B60000E94B30E9B01AC0180913A0390913B032C
:100B7000A0913C03B0913D0339014A01681A790AFA
:100B80008A0A9B0AA614B704C804D90400F5209366
:100B90003A0330933B0340933C0350933D038EE371
:100BA00093E00E94C11EBC01C7010E941F26CB0119
:100BB000800F911F60E871E00E941F260E941A05B5
:100BC0009B01AC018EE393E0BE010E94E91E8EE31F
:100BD00093E00E94711F219620E8822E21E0922E40
:100BE000E80CF91C8EE393E00E94C11EC817D907D8
:100BF00008F4B6CF0F5F1F4F81E00038180729F0C7
:100C0000C0E0D0E0EE24FF24EDCFDF91CF911F9123
:100C10000F91FF90EF90DF90CF90BF90AF909F909B
:100C20008F907F906F9008958F929F92AF92BF9216
:100C3000CF92DF92EF92FF920F931F93CF93DF93A8
:100C400000E010E0C82EDD24EE24FF2441C00E9405
:100C5000B30E9B01AC0180913A0390913B03A091AC
:100C60003C03B0913D0349015A01881A990AAA0A26
:100C7000BB0AC814D904EA04FB04C0F420933A0365
:100C800030933B0340933C0350933D03CE01800FD0
:100C9000911F60E871E00E9433260E941A059B01B3
:100CA000AC018EE393E0BE010E94E91E8EE393E067
:100CB0000E94711F21968EE393E00E94C11EC81707
:100CC000D90728F20F5F1F4F81E00038180719F08D
:100CD000C0E0D0E0F0CFDF91CF911F910F91FF9056
:100CE000EF90DF90CF90BF90AF909F908F9008953E
:100CF0006F927F928F929F92AF92BF92CF92DF922C
:100D0000EF92FF920F931F93CF93DF935B016C01E0
:100D1000142FC0E0D0E00AC08EE393E0BE0120E0D3
:100D200030E040E050E00E94E91E21968EE393E01F
:100D30000E94C11EC817D90778F3C0E0D0E0E12EA9
:100D4000FF2400E010E042C00E94B30E9B01AC0102
:100D500080913A0390913B03A0913C03B0913D03F5
:100D600039014A01681A790A8A0A9B0AE614F704CB
:100D70000805190550F520933A0330933B0340933F
:100D80003C0350933D038EE393E0BE01A601950121
:100D90000E94E91E209731F48EE393E00E94C11E69
:100DA000BC0101C0BE01615070408EE393E020E0C1
:100DB00030E040E050E00E94E91E8EE393E00E94A4
:100DC000711FC801B7010E94C10E21968EE393E006
:100DD0000E94C11EC817D90708F4B6CFDF91CF9182
:100DE0001F910F91FF90EF90DF90CF90BF90AF9049
:100DF0009F908F907F906F9008956FE071E00E94B8
:100E0000E5120895EF92FF920F931F938C017B01DF
:100E100067EF74E00E94EA04C80165ED74E00E9487
:100E2000EA04C8016CEE74E00E94EA04C801B7014C
:100E30000E94E512C8010E94FD06C8010E94FD063D
:100E40001F910F91FF90EF900895EF92FF920F93F3
:100E50001F93CF93DF93F82EE92E8B01EA016FE306
:100E600075E00E94EA048F2D9E2D65ED74E00E94CE
:100E7000EA048F2D9E2D60E175E00E94EA048F2D1B
:100E80009E2DB8010E94E5128F2D9E2D0E94FD0619
:100E9000209729F08F2D9E2DBE010E94E5128F2DE7
:100EA0009E2D0E94FD06DF91CF911F910F91FF9023
:100EB000EF9008950F931F93CF93DF93EC018B0175
:100EC00062E171E04FE151E00E9425070230110517
:100ED00039F0CE0161E575E046EC50E00E94C904AE
:100EE000DF91CF911F910F9108950F931F93CF938F
:100EF000DF93EC018B0161E471E040E050E00E947F
:100F000025070230110529F0CE0167E176E00E9445
:100F1000EA04DF91CF911F910F9108950F931F93D2
:100F20008C01FC0111AE065F1F4FC8010E94BE1468
:100F3000C8010E9427151F910F9108958F929F92CB
:100F4000AF92BF92CF92DF92EF92FF920F931F93D7
:100F5000CF93DF93EC01EAE0AE2EB12CA80EB91EC0
:100F6000E0914A02F0914B02C5010995882309F4EA
:100F700043C089AD882309F042C00E94B30E6B01C3
:100F80007C0188EE93E0A0E0B0E0C80ED91EEA1E16
:100F9000FB1E7FE6872E912C8C0E9D1E28C0D4014F
:100FA0008C91882321F08AAD9BAD892B29F1C50155
:100FB0000E9493158C01BFEF8F3F9B0769F0C159C9
:100FC000DF4F8881CF56D040882301F18AAD9BAD99
:100FD00001979BAF8AAF1AC00E94B30EC616D70600
:100FE000E806F90620F4CE010E948E070FC0C50165
:100FF0000E940315882399F60FEF1FEF07C0815059
:1010000089AFC80FD11D898D082F10E0C801DF916D
:10101000CF911F910F91FF90EF90DF90CF90BF90F5
:10102000AF909F908F9008953F924F925F926F92F2
:101030007F928F929F92AF92BF92CF92DF92EF9268
:10104000FF920F931F93DF93CF9300D00F92CDB7F2
:10105000DEB73C014B017A015901CB0160E070E041
:101060000E94A004C50160E070E0A8010E94A004F5
:101070000894E108F10868010894C108D10810E05B
:10108000F3E03F2E2E010894411C511C46C08B32C8
:10109000910519F480E290E02CC08D33910519F48C
:1010A000EE24FF2439C08632910511F411E03FC0CF
:1010B00085329105F1F4C3010E949E078C01C301A2
:1010C0000E949E072FEF0F3F120781F1EFEF8F3F36
:1010D0009E0761F1F201232D11922A95E9F7098308
:1010E0008A83C20160E070E040E150E00E949F030B
:1010F000CB011E141F043CF4F40181934F010894AA
:10110000E108F10809C01C141D0434F4F5018193B1
:101110005F010894C108D10811E0C3010E949E0735
:10112000FFEF8F3F9F0709F0B2CF01C010E0812F82
:101130000F900F900F90CF91DF911F910F91FF9023
:10114000EF90DF90CF90BF90AF909F908F907F9067
:101150006F905F904F903F900895AF92BF92CF9263
:10116000DF92EF92FF920F931F93DF93CF93CDB750
:10117000DEB7A0970FB6F894DEBF0FBECDBF7C01DF
:101180008B016330710509F051C0A1E1AA2EB12C89
:10119000AC0EBD1E6E010894C11CD11CC701B60166
:1011A00040E150E0950100E110E00E941408182F82
:1011B00085EE93E0B6010E94E51285EE93E06CE4C3
:1011C00071E00E94E51285EE93E0B5010E94E812FD
:1011D000C60160E571E00E94B204009761F4C501A8
:1011E00060E070E04AE050E00E949F037093370394
:1011F0006093360312C0C60165E571E00E94B20437
:10120000009759F4C50160E070E04AE050E00E94A8
:101210009F037093390360933803112309F0BECF05
:10122000C7016EE571E00E9402070EC064E671E03E
:1012300040E050E00E9425070130110529F4C70164
:1012400068E670E00E94EA04A0960FB6F894DEBF4C
:101250000FBECDBFCF91DF911F910F91FF90EF9007
:10126000DF90CF90BF90AF900895EF92FF920F93D1
:101270001F93CF93DF938C017B01EA01CB0160E0E8
:1012800070E00E94A004C8010E949E078032910570
:10129000D1F389309105B9F32197C230D10524F0FB
:1012A000F70181937F012197C8010E949E078D302D
:1012B000910599F7F80181ADE80FF11D9DE0918F3F
:1012C0008F5FF80181AF803211F48FE181AFDF9140
:1012D000CF911F910F91FF90EF900895FF920F9380
:1012E0001F93CF93DF93EC018B01FB0111821082DE
:1012F000CE010E949E07AC0180329105C9F389306E
:101300009105B1F38D32910511F0FF2406C0CE0195
:101310000E949E07AC01FF24F39420E018C0F8015E
:10132000808191819C0163E0220F331F6A95E1F770
:10133000880F991F280F391F20533040240F351F65
:1013400031832083CE010E949E07AC0121E0CA01B7
:10135000C0970A9720F3FFEF4F3F5F0759F089AD21
:10136000FE01E80FF11D418F8F5F89AF803211F4CC
:101370008FE189AFFF2041F0F80180819181909544
:1013800081959F4F91838083822FDF91CF911F9111
:101390000F91FF900895EF92FF920F931F93CF93B9
:1013A000DF938C017B01EB0139C0C8010E949E07CD
:1013B0009C018991992787FD90952817390771F12C
:1013C0008FEF2F3F380719F1F80181ADE80FF11DBC
:1013D000218F8F5FF80181AF8032C9F48FE181AF37
:1013E00016C08A912196282F332727FD3095FFEFCD
:1013F0002F3F3F0769F0F80181ADE80FF11D218F04
:101400008F5FF80181AF803219F491AF01C09FE185
:101410002197CE15DF0529F780E004C08881882355
:1014200021F681E0DF91CF911F910F91FF90EF9016
:101430000895EF92FF920F931F93CF93DF93EC01E8
:101440001CAE7CE3E72EF12CE80EF91E8C01065C45
:101450001F4FCE016DE771E00E94CB09882329F070
:10146000CE01B8010E946E09F4CFCE016DE871E0A3
:101470000E94CB09882339F0CE01B70143E350E045
:101480000E943509E6CFCE016CE971E00E94CB09DC
:10149000882329F0C159DF4F81E0888306C0CE013F
:1014A0000E949E078F5F9F4FA1F6DF91CF911F9102
:1014B0000F91FF90EF900895CF92DF92EF92FF92FD
:1014C0000F931F93CF93DF938C01EB016A01790196
:1014D000F90180819181019791838083198218821B
:1014E000C80161EA71E00E94CB09882319F081E00C
:1014F00090E031C0C80166EA71E00E94CB09882300
:1015000019F082E090E027C0C8016CEA71E00E9407
:10151000CB09882319F083E090E01DC0C80162EB7D
:1015200071E00E94CB09882319F084E090E013C099
:10153000C80167EB71E00E94CB09882319F085E0B0
:1015400090E009C0C8016FEB71E00E94CB098823CD
:1015500039F186E090E09983888318C02032310504
:10156000E9F02A303105D1F02D303105B9F0F7011D
:1015700080819181181619061CF4F60121936F01E0
:10158000F70180819181019791838083C8010E9436
:101590009E079C01FFEF8F3F9F0701F7F601108226
:1015A000DF91CF911F910F91FF90EF90DF90CF903F
:1015B00008953F924F925F926F927F928F929F9287
:1015C000AF92BF92CF92DF92EF92FF920F931F9351
:1015D000DF93CF93CDB7DEB760970FB6F894DEBF39
:1015E0000FBECDBF8C013B01DA01422E8C918823C6
:1015F00061F08F3209F0C8C05A010894A11CB11CD7
:1016000011968C911197882361F40E581F4FD801C1
:10161000ED91FC9102571040C801B3014DEC51E02F
:1016200061C08F3369F40E581F4F1296F801E080A5
:10163000F18002571040C801AD01F7010995A2C021
:10164000C5016FE370E00E94A7049C01009759F464
:10165000D5010D900020E9F76D010894C108D1086B
:10166000CA18DB0803C06C01CA18DB085524232BF9
:1016700011F0552453940C561F4FF8013080045933
:10168000104024E7822E912C800E911EEE24FF2420
:1016900033C0D4016C9111967C91DB01FD01019066
:1016A0000020E9F73197EA1BFB0BCE16DF06E9F4C1
:1016B000C501A6010E94BB040097B9F4EE0CFF1C03
:1016C000EE0CFF1CE00EF11EE6E7F0E0EE0EFF1E52
:1016D000C50CD11CAC0CBD1CD701ED91FC91C8010F
:1016E000B301A501242D09954DC00894E11CF11CFE
:1016F000E4E0F0E08E0E9F1EE31458F20B561F4FED
:10170000D8018D919C9105591040892BE9F1FE017A
:10171000319680E1DF011D928A95E9F7A5014C0D14
:101720005D1DDA011C92BA82A982950191E0BF0188
:1017300013C0F90180818F3269F4D9011D92E92F1C
:10174000F0E0EE0FFF1FE60FF71FB183A0839F5F4E
:10175000983029F02F5F3F4F2417350750F30B5671
:101760001F4FC50CD11CAC0CBD1CD801ED91FC91D8
:1017700005591040C801B301AE014F5F5F4F95019D
:10178000042D099581E001C080E060960FB6F894C1
:10179000DEBF0FBECDBFCF91DF911F910F91FF90A4
:1017A000EF90DF90CF90BF90AF909F908F907F9001
:1017B0006F905F904F903F900895CF93DF93BC015F
:1017C000EC01C954DF4F4881442339F00A96695629
:1017D0007F4F50E00E94BD151882DF91CF91089590
:1017E0008F929F92AF92BF92CF92DF92EF92FF9231
:1017F0000F931F93DF93CF93CDB7DEB72F970FB61D
:10180000F894DEBF0FBECDBF8C016B014A01DC0135
:101810005796EC9157975896FC91DF010D90002058
:10182000E9F75D010894A108B108AE1ABF0ABC012E
:101830006C5F7F4FCE0103960E94AF178D819E8112
:10184000F801958784878F819885A985BA858687D1
:101850009787A08BB18B8B859C85AD85BE85828B50
:10186000938BA48BB58B8F85868BE0914A02F09188
:101870004B02C8010A960995882309F477C00159DB
:101880001F4FD8011C920F561040F60110821A8289
:101890001982C801BE016F5F7F4FA60194010E94AB
:1018A0005C0A89819A81892BE1F0C8010E94190A9A
:1018B000C6016EEC71E00E94B204009731F46981B8
:1018C0007A81C8010E9475070CC0C6016AED71E0FB
:1018D0000E94B204009729F469817A81C8010E94AC
:1018E0005A07E980FA80E114F10459F0D8015796BB
:1018F0006D917C915897C601A5010E94BB04009789
:1019000079F0F801E059FF4F20E0D4018D919C91CE
:1019100097FF21E00190F081E02DC801B7011EC0C2
:10192000A6014A0D5B1D20E0F4018081918197FFA3
:1019300021E0C801B7010E94D90A882389F4F8017F
:10194000E059FF4F69817A8120E0D4018D919C910B
:1019500097FF21E00190F081E02DC801A6010995D3
:10196000C8010E94DD0BC8010E948E072F960FB69A
:10197000F894DEBF0FBECDBFCF91DF911F910F91C5
:10198000FF90EF90DF90CF90BF90AF909F908F909F
:101990000895DF93CF93CDB7DEB7A2970FB6F89433
:1019A000DEBF0FBECDBF20E230E03A832983BE0107
:1019B0006D5F7F4FAE014F5F5F4F0E94F00BA296AD
:1019C0000FB6F894DEBF0FBECDBFCF91DF91089563
:1019D0008EE792E00E94C90C0E94B30E80913603FC
:1019E0009091370384319105E1F08531910554F4EC
:1019F00085309105B1F08A30910599F081309105DB
:101A0000D1F40AC08C33910561F08837910571F0EB
:101A10008E31910581F405C010923903109238037C
:101A200087C0909339038093380382C09093390321
:101A30008093380344C08C38910509F449C08D382F
:101A400091059CF48E36910571F18F3691052CF439
:101A50008436910509F06CC022C08837910579F170
:101A60008238910509F064C02EC021E08C329207C3
:101A7000F1F121E08D32920744F48639910569F144
:101A8000803A910509F054C02EC021E086339207B8
:101A900009F43EC08054914009F04AC03EC08EE334
:101AA00093E060E003C08EE393E06FE740E020E066
:101AB0000E94C51E409138030E94430539C08EE341
:101AC00093E06FE703C08EE393E060E04FE7EFCF72
:101AD0008EE393E060E04FE704C08EE393E060E0C4
:101AE00040E02FE7E5CF8EE393E06FE7F9CF8091F9
:101AF00038030E9414068091FA019091FB01892B12
:101B0000B9F085EE93E067EE71E00E94E81210C034
:101B1000809138030E949B050BC08EE393E06FE732
:101B200040E020E00E94C51E409138030E947806E4
:101B30008EE393E06FE74FE720E00E94C51E44E18B
:101B40000E9443050895CF92DF92EF92FF920F9388
:101B50001F938C017B016A010E94DD0BC8010A966C
:101B6000B701A6010E94BD151F910F91FF90EF9044
:101B7000DF90CF900895CF93DF939C01EC01C9547F
:101B8000DF4F8881F901E80FF11DE956FF4F6083AF
:101B90008F5F8883803251F4C9010A9629563F4FDE
:101BA000B90140E250E00E94BD15188281E090E04A
:101BB000DF91CF9108950F931F93DF93CF9300D0C0
:101BC00000D000D0CDB7DEB785EE93E040E051EE17
:101BD00060E070E00E94E30F0EE313E0C8010E9492
:101BE000B720C8010E94711F8E010F5F1F4FC801EF
:101BF00060E072E00E94D71185E194E064E072E059
:101C0000A8010E9441148DEA98E09093F10280931C
:101C1000F00282E892E00E94271826960FB6F89408
:101C2000DEBF0FBECDBFCF91DF911F910F91089501
:101C3000EF92FF920F931F938C017B01FC011382A3
:101C4000128286E192E091838083C8010496BA01F2
:101C50000E94C116C8010A960E948314F801F08EF2
:101C6000E78A11AE13AE12AE00591F4F87E195E01F
:101C7000F801819391938F01918380830E5D1F4FB3
:101C8000F80111928F01118210820E5D1F4FF80131
:101C900010821F910F91FF90EF9008950F938EE4A3
:101CA00093E060E040E020E000E00E946D118EE7EC
:101CB00092E06EE571E040E550E00E94180E8EE380
:101CC00093E068E170E04091FC012091FE010E94E8
:101CD000A4200F9108951F920F920FB60F92112416
:101CE0002F933F938F939F93AF93BF93809158030C
:101CF00090915903A0915A03B0915B0330915C031A
:101D00000196A11DB11D232F2D5F2D3720F02D57DA
:101D10000196A11DB11D20935C03809358039093FD
:101D20005903A0935A03B0935B038091540390919D
:101D30005503A0915603B09157030196A11DB11D03
:101D40008093540390935503A0935603B093570385
:101D5000BF91AF919F918F913F912F910F900FBEA7
:101D60000F901F9018958FB7F894209158033091D9
:101D7000590340915A0350915B038FBFB901CA01C7
:101D800008959B01AC017FB7F89480915403909122
:101D90005503A0915603B091570366B5A89B05C0A3
:101DA0006F3F19F00196A11DB11D7FBFBA2FA92F5A
:101DB000982F8827860F911DA11DB11D62E0880F05
:101DC000991FAA1FBB1F6A95D1F7BC012DC0FFB791
:101DD000F8948091540390915503A0915603B091CB
:101DE0005703E6B5A89B05C0EF3F19F00196A11D6A
:101DF000B11DFFBFBA2FA92F982F88278E0F911DD5
:101E0000A11DB11DE2E0880F991FAA1FBB1FEA9513
:101E1000D1F7861B970B885E9340C8F22150304063
:101E20004040504068517C4F211531054105510516
:101E300071F60895789484B5826084BD84B581601C
:101E400084BD85B5826085BD85B5816085BDEEE6C2
:101E5000F0E0808181608083E1E8F0E010828081A1
:101E600082608083808181608083E0E8F0E080810F
:101E700081608083E1EBF0E0808184608083E0EB2F
:101E8000F0E0808181608083EAE7F0E08081846017
:101E90008083808182608083808181608083808173
:101EA000806880831092C100089508951F920F9258
:101EB0000FB60F9211242F933F934F938F939F93BD
:101EC000EF93FF938091C00082FD1DC04091C6003A
:101ED00020919D0330919E032F5F3F4F2F733070F1
:101EE00080919F039091A0032817390771F0E0912A
:101EF0009D03F0919E03E35AFC4F408330939E0371
:101F000020939D0302C08091C600FF91EF919F91A5
:101F10008F914F913F912F910F900FBE0F901F9077
:101F20001895E091F103F091F203E05CFF4F81918D
:101F3000919120813181805C9F4F821B930B60E4E3
:101F400070E00E943326892B11F00E94550F0895EE
:101F50001F920F920FB60F9211242F933F938F93DE
:101F60009F93EF93FF932091E1033091E2038091DF
:101F7000E3039091E4032817390731F48091C100FD
:101F80008F7D8093C10014C0E091E303F091E403DE
:101F9000EF55FC4F20818091E3039091E40301967B
:101FA0008F7390709093E4038093E3032093C600B3
:101FB000FF91EF919F918F913F912F910F900FBEC5
:101FC0000F901F901895AF92BF92DF92EF92FF9201
:101FD0000F931F93CF93DF93EC017A018B01DD24E4
:101FE000403081EE580780E0680780E0780711F004
:101FF000DD24D39491E0A92EB12CEC89FD89DD205C
:1020000069F0C50108A002C0880F991F0A94E2F781
:10201000808360E079E08DE390E005C0108260E8A5
:1020200074E88EE190E0A80197010E9446262150B5
:10203000304040405040569547953795279580E170
:102040002030380720F0DD2011F0DD24D6CFE889DC
:10205000F9893083EA89FB89208319A2EE89FF89F7
:10206000408121E030E0C9010C8C02C0880F991F2B
:102070000A94E2F7482B4083EE89FF894081C90129
:102080000D8C02C0880F991F0A94E2F7482B4083F9
:10209000EE89FF894081C9010E8C02C0880F991F0B
:1020A0000A94E2F7482B4083EE89FF8980810F8CE8
:1020B00002C0220F331F0A94E2F7209528232083C1
:1020C000DF91CF911F910F91FF90EF90DF90BF9024
:1020D000AF900895DC011C96ED91FC911D97E05C9A
:1020E000FF4F8191919120813181805C9F4F821BB4
:1020F000930B60E470E00E9433260895DC011C9687
:10210000ED91FC911D97E05CFF4F20813181E054FF
:10211000F040DF01AE5BBF4F8D919C911197281766
:10212000390719F42FEF3FEF07C08D919C91E80F0D
:10213000F91F8081282F30E0C9010895DC011C9629
:10214000ED91FC911D97E05CFF4F20813181E054BF
:10215000F040DF01AE5BBF4F8D919C911197281726
:10216000390719F42FEF3FEF10C08D919C91119713
:10217000E80FF91F20818D919C91119701968F7323
:10218000907011969C938E9330E0C9010895DC0104
:1021900091968C919197882339F05496ED91FC910A
:1021A0005597808186FFF9CF91961C920895CF9321
:1021B000DF93EC01EE85FF85E05CFF4F20813181EC
:1021C000E054F0402F5F3F4F2F733070DF01AE5B64
:1021D000BF4F8D919C91119728173907D1F3E05C7F
:1021E000FF4F80819181E054F040E80FF91F608338
:1021F000EE85FF85E05CFF4F31832083EE89FF8908
:10220000208181E090E00F8C02C0880F991F0A9412
:10221000E2F7282B208381E089A3EC89FD89808166
:102220008064808381E090E0DF91CF9108951092E7
:10223000E8031092E70388EE93E0A0E0B0E080931B
:10224000E9039093EA03A093EB03B093EC038EE1D0
:1022500092E09093E6038093E5038DE593E09093FD
:10226000F2038093F10381EA93E09093F403809367
:10227000F30385EC90E09093F6038093F50384ECF0
:1022800090E09093F8038093F70380EC90E09093B4
:10229000FA038093F90381EC90E09093FC03809320
:1022A000FB0382EC90E09093FE038093FD0386ECA9
:1022B00090E0909300048093FF0384E080930104F6
:1022C00083E08093020487E08093030485E0809399
:1022D000040481E08093050408950F93FC018EE2CD
:1022E00092E09183808362834383248305830F91EB
:1022F00008958EE292E09093080480930704109270
:10230000090410920A0410920B0410920C04089510
:102310008F929F92AF92BF92CF92DF92EF92FF92F5
:102320000F931F93CF93DF934C016B017C01AA2481
:10233000BB24C0E0D0E0C601F70162814AE050E072
:102340000E94D3128C01C6016EE20E941C12080F7B
:10235000191FA00EB11E21960894E11CF11CC33078
:10236000D10549F7C601F40165814AE050E00E94B9
:10237000D3129501280F391FC901DF91CF911F9109
:102380000F91FF90EF90DF90CF90BF90AF909F9014
:102390008F9008959C01FB0180819181A281B3817E
:1023A000F90182839383A483B583C90108959C01B5
:1023B000FB018EE292E0D9018D939C938081918103
:1023C000A281B381F90182839383A483B5830895A5
:1023D000FC018EE292E09183808312821382148248
:1023E00015820895CF92DF92EF92FF920F931F9381
:1023F000CF93DF937C016B018A01C0E0D0E00FC076
:10240000D6016D916D01D701ED91FC910190F081A4
:10241000E02DC7010995C80FD91F015010400115C3
:10242000110571F7CE01DF91CF911F910F91FF90B0
:10243000EF90DF90CF900895DC01ED91FC91019039
:10244000F081E02D09950895EF92FF920F931F936D
:102450008C01DC01ED91FC910190F081E02D6DE0AB
:1024600009957C01D801ED91FC910190F081E02D5E
:10247000C8016AE009959C012E0D3F1DC9011F91FD
:102480000F91FF90EF900895CF93DF93EC016115CA
:10249000710519F420E030E00FC0DB010D90002041
:1024A000E9F71197A61BB70BE881F9810280F38148
:1024B000E02DAD0109959C01C901DF91CF910895EF
:1024C0004F925F927F928F929F92AF92BF92CF92E4
:1024D000DF92EF92FF920F931F93DF93CF93CDB7CD
:1024E000DEB7A1970FB6F894DEBF0FBECDBF2C01AB
:1024F000742ECB01223008F42AE019A231E2C32E57
:10250000D12CCC0EDD1E822E9924AA24BB24672D4B
:10251000752FA50194010E94462679018A01C80100
:10252000B701A50194010E940026472D461B08947F
:10253000C108D1084A3014F4405D01C0495CF6017D
:102540004083E114F1040105110521F07E2C5F2D7B
:10255000C801DDCFC201B6010E944412A1960FB698
:10256000F894DEBF0FBECDBFCF91DF911F910F91C9
:10257000FF90EF90DF90CF90BF90AF909F908F90A3
:102580007F905F904F900895DC012115310541F453
:10259000ED91FC910190F081E02D642F0995089553
:1025A0000E9460120895EF92FF920F931F939A0179
:1025B000E62EFF2400E010E0B801A7010E94C4123B
:1025C0001F910F91FF90EF9008950E94441208957B
:1025D000EF92FF920F931F937C010E9444128C0193
:1025E000C7010E942412080F191FC8011F910F91E3
:1025F000FF90EF9008950895CF93DF930E941A0FF4
:102600000E94FB120E94DB0DC1E9DFE00E94E80C92
:102610002097E1F30E94910FF9CFDB01FC012EE23C
:1026200032E03183208312962D913D914D915C9142
:102630001597228333834483558308950F938DE147
:1026400094E060E040E020E000E00E946D1185E150
:1026500094E00E94E8110F9108956F927F928F92FB
:102660009F92AF92BF92CF92DF92EF92FF920F9321
:102670001F933C015B016A01490187E394E00E94DA
:102680008F1E89E090E0B50146E050E00E94A41C56
:1026900082E090E0C80ED91E8FE090E0B60144E0E1
:1026A00050E00E94A41C0E5F1F4F81E090E0B80133
:1026B00044E050E00E94A41CE2E0F0E0EE0EFF1EB9
:1026C00085E090E0B70144E050E00E94A41CF401D2
:1026D00082819381A481B581F30182839383A48352
:1026E000B5831F910F91FF90EF90DF90CF90BF9037
:1026F000AF909F908F907F906F9008956F927F9290
:102700008F929F92AF92BF92CF92DF92EF92FF9201
:102710000F931F93DF93CF93CDB7DEB76E970FB6AE
:10272000F894DEBF0FBECDBF4C013B017A016901B9
:102730005801CE0101966FEF4FEF2FEF00E00E949E
:102740006D112EE232E038872F83F7018281938169
:10275000A481B58189879A87AB87BC873E872D87FF
:10276000F60182819381A481B5818F87988BA98B93
:10277000BA8B3C8B2B8BF50182819381A481B5812F
:102780008D8B9E8BAF8BB88F3A8F298F8B819C81DD
:10279000AD81BE818B8F9C8FAD8FBE8FC401B30185
:1027A000AE01495F5F4F9E01235F3F4F8E010D5E7B
:1027B0001F4FE9E1EE2EF12CEC0EFD1E0E942D13B1
:1027C0006E960FB6F894DEBF0FBECDBFCF91DF91EE
:1027D0001F910F91FF90EF90DF90CF90BF90AF903F
:1027E0009F908F907F906F9008950F931F93DF932A
:1027F000CF93CDB7DEB768970FB6F894DEBF0FBEA4
:10280000CDBFFA01D90122813381448155812B83C7
:102810003C834D835E83EEE2F2E0F887EF83298705
:102820003A874B875C87FE87ED8712962D913D9105
:102830004D915C9115972F87388B498B5A8BFC8B68
:10284000EB8B21E02E832B813C814D815E812D8B92
:102850003E8B4F8B588FAE01495F5F4F9E01235FC8
:102860003F4F8E010D5E1F4F0E947E1368960FB67C
:10287000F894DEBF0FBECDBFCF91DF911F910F91B6
:102880000895DF93CF93CDB7DEB762970FB6F89474
:10289000DEBF0FBECDBFFA01228133814481558155
:1028A0002B833C834D835E83EEE2F2E0F887EF8377
:1028B00029873A874B875C87FE87ED8721E02E8347
:1028C0002B813C814D815E812F87388B498B5A8BC0
:1028D000AE01495F5F4F9E01235F3F4F0E94F5139A
:1028E00062960FB6F894DEBF0FBECDBFCF91DF91D9
:1028F0000895DC01ED91FC91008CF18DE02D09959E
:1029000091E089270895FC011382128288EE93E0FA
:10291000A0E0B0E084839583A683B78384E392E04C
:102920009183808384E084870895FC01138212825E
:1029300088EE93E0A0E0B0E084839583A683B7831C
:1029400084E392E09183808364870895DF93CF933B
:102950000F92CDB7DEB7FC016983A081B1811296D9
:102960002D913C911397BE016F5F7F4F41E050E086
:10297000F90109950F90CF91DF910895CF93DF93DF
:10298000EC0107C0E881F9810680F781E02DCE01D6
:102990000995E881F9810480F581E02DCE01099542
:1029A000892B81F7DF91CF91089520E0FC01848588
:1029B000843009F021E0822F0895FB01DC011C9690
:1029C0009C918485981711F080E0089580E0943000
:1029D00009F081E008950F9383E294E060E040E025
:1029E00020E000E00E946D110F910895FC018485A4
:1029F000843011F480E00895982F80E08D5F9B4F24
:102A00000E94CB1C0895CF93DF93EC018C8584301A
:102A100011F480E019C0CE010E94F614843191F0C7
:102A2000882381F0883171F08C3151F4E881F9818B
:102A30000480F581E02DCE01099520E0892B19F065
:102A400021E001C020E0822FDF91CF910895EF9225
:102A5000FF920F931F93CF93DF93EC018C8584300B
:102A600089F10E94831A0E94B30E7B018C01CE0172
:102A70000E94F614882301F10E94B30E6E197F099B
:102A8000800B910B685E734080409040A8F461E039
:102A900070E080E090E00E94C10EE9CF8C850E943A
:102AA000D51AEC85F0E0EE0FFF1FE35FFB4F1182BC
:102AB000108284E08C8706C0CE010E94F614882321
:102AC00081F3ECCFDF91CF911F910F91FF90EF90A9
:102AD00008950F931F93DF93CF930F92CDB7DEB777
:102AE0008C01DC01ED91FC910480F581E02D0995CC
:102AF000892B19F42FEF3FEF0AC0F8018485BE013E
:102B00006F5F7F4F0E943A1C8981282F30E0C901F6
:102B10000F90CF91DF911F910F910895FC01848553
:102B20000E94491C0895DF93CF930F92CDB7DEB773
:102B3000FC018485BE016F5F7F4F41E050E00E9441
:102B4000491C181619061CF02FEF3FEF03C08981AE
:102B5000282F30E0C9010F90CF91DF910895FC013B
:102B60006485643019F420E030E005C087E394E028
:102B70000E94811D9C01C90108950F931F93CF935B
:102B8000DF938C01EA01FC018485843019F481E033
:102B900090E007C00E94E31B892B39F481E090E0AC
:102BA000F80193838283C0E0D0E0CE01DF91CF9122
:102BB0001F910F910895AF92BF92CF92DF92EF9243
:102BC000FF920F931F93CF93DF937C016B015A0108
:102BD000FC018485843009F056C0C0E0D0E003E0F9
:102BE00014E0C8010E94CB1C882321F0883111F029
:102BF0008C3119F4F701C48706C0219600501F4F8D
:102C0000C430D10571F7F70124852430E1F18091BA
:102C10000A0290910B02019690930B0280930A0294
:102C2000892B31F480E094E090930B0280930A02A8
:102C300040910A0250910B02822F61E020E00E9435
:102C4000141B82E090E0C80ED91EF7018485B601FE
:102C5000A5010E94781B09C061E070E080E090E06F
:102C60000E94C10EC7010E94F614882321F484E05B
:102C7000F701848708C0C7010E94F614873161F705
:102C800021E030E002C020E030E0C901DF91CF91C7
:102C90001F910F91FF90EF90DF90CF90BF90AF907A
:102CA00008956F927F928F929F92AF92BF92CF9230
:102CB000DF92EF92FF920F931F93DF93CF93CDB7E5
:102CC000DEB7E5970FB6F894DEBF0FBECDBF4C015F
:102CD0005B013A0193E1E92EF12CEC0EFD1EC701D8
:102CE0000E94E811CE014B960E94AD196E01089426
:102CF000C11CD11CC6010E94E8118E01095F1F4F43
:102D0000C80165E174E00E940D13C701B8010E947B
:102D1000E022C701B501A6010E945F259C01813018
:102D20009105C9F4D401ED91FC910484F585E02D61
:102D30008EE292E09E878D878B819C81AD81BE81E2
:102D40008F87988BA98BBA8BC401BE01635F7F4FBD
:102D5000A30109959C01C901E5960FB6F894DEBF61
:102D60000FBECDBFCF91DF911F910F91FF90EF90DC
:102D7000DF90CF90BF90AF909F908F907F906F909B
:102D80000895FC011382128284E592E0918380838E
:102D9000758364830895DF93CF930F92CDB7DEB729
:102DA000FC016983A081B18112962D913C9113970A
:102DB000BE016F5F7F4F41E050E0F90109950F9030
:102DC000CF91DF9108950F9389E294E060E040E0B5
:102DD00020E000E00E946D110F9108958F929F9264
:102DE000BF92CF92DF92EF92FF920F931F93DF93E8
:102DF000CF93CDB7DEB72D970FB6F894DEBF0FBED9
:102E0000CDBF7C010DE014E088249924BB246E0121
:102E10000894C11CD11CC6016B2D0E949514D801C9
:102E20002D913C91F7018481958128173907B1F4E0
:102E3000C6010E94F614843121F481E0882E912C81
:102E40000DC0C6010E94F6148C3141F4C6010E94E7
:102E5000AF15892B19F4C6010E942715B3940E5F94
:102E60001F4FF4E0BF16B9F6892841F4D701ED9160
:102E7000FC910480F581E02DC70109952D960FB6D0
:102E8000F894DEBF0FBECDBFCF91DF911F910F91A0
:102E9000FF90EF90DF90CF90BF909F908F9008951C
:102EA0004F925F926F927F928F929F92AF92BF925A
:102EB000DF92EF92FF920F931F93DF93CF93CDB7E3
:102EC000DEB72D970FB6F894DEBF0FBECDBF4C0115
:102ED0002B013A010E94EE169DE0E92E94E0F92EB6
:102EE00000E010E0DD245E010894A11CB11CC501C6
:102EF0006D2D0E949514F70120813181F4018481A8
:102F000095812817390761F4C5010E94F6148731AD
:102F100039F4C501B201A3010E94BD15080F191FA4
:102F2000D39482E090E0E80EF91E94E0D916F9F609
:102F3000C8012D960FB6F894DEBF0FBECDBFCF915E
:102F4000DF911F910F91FF90EF90DF90BF90AF90B6
:102F50009F908F907F906F905F904F9008959F9279
:102F6000AF92BF92CF92DF92EF92FF920F931F9397
:102F7000DF93CF93CDB7DEB72D970FB6F894DEBFB2
:102F80000FBECDBFC82E992E5B01CB010E94EE165D
:102F90000DE014E0DD247E010894E11CF11CC70162
:102FA0006D2D0E949514F80120813181F5018481F5
:102FB00095812817390761F5C7010E94F6148731FA
:102FC00029F0C7010E94F6148C3111F5C7010E9447
:102FD000AF15892BE9F0EC2DF92D8B819C81938322
:102FE00082838D819E81AF81B88584839583A683FA
:102FF000B78389859A85AB85BC8580879187A287B1
:10300000B38784E392E0918380838D8584870BC0AE
:10301000D3940E5F1F4FF4E0DF1609F68C2D992D27
:1030200064E00E9495148C2D992D2D960FB6F8947E
:10303000DEBF0FBECDBFCF91DF911F910F91FF90EB
:10304000EF90DF90CF90BF90AF909F900895CF9278
:10305000DF92EF92FF920F931F93DF93CF93CDB741
:10306000DEB72D970FB6F894DEBF0FBECDBF6C0153
:1030700000E010E07E010894E11CF11CC701602F04
:103080000E949514C7010E94F6148823B1F4F6013A
:1030900044815581802F61E020E00E94141B802F25
:1030A0000E94931A000F111F035F1B4FF6018481CA
:1030B0009581F8019183808305C00F5F1F4F043015
:1030C0001105E1F62D960FB6F894DEBF0FBECDBF09
:1030D000CF91DF911F910F91FF90EF90DF90CF90F4
:1030E0000895DC01ED91FC91008CF18DE02D0995A6
:1030F0000895DB01FC012EE232E0318320835196FA
:103100002D913D914D915C9154972283338344835B
:1031100055830895FC01858996890895FC01818D68
:10312000928D0895DF93CF930F92CDB7DEB7FC0158
:103130006983A081B18112962D913C911397BE01B4
:103140006F5F7F4F41E050E0F90109950F90CF91FB
:10315000DF910895CF93DF93EC0107C0E881F981F7
:103160000680F781E02DCE010995898D9A8D892BF6
:10317000A9F7DF91CF9108950F938FE294E060E07B
:1031800040E020E000E00E946D110F910895DF9370
:10319000CF930F92CDB7DEB7FC01818D928D892B35
:1031A00019F42FEF3FEF09C08485BE016F5F7F4F99
:1031B0000E943A1C8981282F30E0C9010F90CF91DD
:1031C000DF910895CF93DF93EC019A01498D5A8DD9
:1031D00041155105A1F02417350710F08C8502C068
:1031E0008C85A9010E94491C9C01181619063CF403
:1031F000898D9A8D821B930B9A8F898F02C02FEF36
:103200003FEFC901DF91CF9108950F931F93DF9393
:10321000CF930F92CDB7DEB78C01FC01818D928DDB
:10322000892BA9F08485BE016F5F7F4F41E050E09C
:103230000E94491C1816190654F4F801818D928DCC
:103240000197928F818F8981282F30E002C02FEF64
:103250003FEFC9010F90CF91DF911F910F9108951A
:10326000EF92FF920F931F93DF93CF93CDB7DEB70B
:1032700028970FB6F894DEBF0FBECDBF8C01DC01DE
:10328000ED91FC910284F385E02D099587E394E0AC
:10329000F80164850E94811D892B19F420E030E03B
:1032A00025C0D8011C968C917E010894E11CF11C6C
:1032B000B70148E050E00E94491C9C01181619060D
:1032C000ACF4C8010F96B7010E94CA119D8180E03D
:1032D0002E81820F911DF801968B858B9F8180E056
:1032E0002885820F911D928F818F9C01C90128969C
:1032F0000FB6F894DEBF0FBECDBFCF91DF911F9107
:103300000F91FF90EF9008950F931F938C01FB0195
:103310009A01DC0157966D917C9158971C968C917F
:10332000AF010E94B31B9C01F8018789908D820F29
:10333000931F908F878BC9011F910F910895FC01F6
:1033400084850E94B11A0895FC01108E178A6E5F61
:103350007F4F84850E944D1B0895FC0113821282C9
:1033600088EE93E0A0E0B0E084839583A683B783E2
:103370008EE592E09183808384E08487CF010F966D
:103380000E94E81108956F927F928F929F92AF9260
:10339000BF92CF92DF92EF92FF920F931F93DF9332
:1033A000CF93CDB7DEB7E5970FB6F894DEBF0FBE6B
:1033B000CDBF4C015B013A0183E1E82EF12CEC0E0C
:1033C000FD1EC7010E94E811CE014B960E94AD1967
:1033D0006E010894C11CD11CC6010E94E8118E0127
:1033E000095F1F4FC80165E174E00E940D13C7011A
:1033F000B8010E94E022C701B501A6010E945F2525
:103400009C0181309105C9F4D401ED91FC910088B3
:10341000F189E02D8EE292E09E878D878B819C81E1
:10342000AD81BE818F87988BA98BBA8BC401BE01F9
:10343000635F7F4FA30109959C01C901E5960FB613
:10344000F894DEBF0FBECDBFCF91DF911F910F91DA
:10345000FF90EF90DF90CF90BF90AF909F908F90B4
:103460007F906F900895CF93DF93EC018C8584302B
:1034700061F00E94D51AEC85F0E0EE0FFF1FE35FCC
:10348000FB4F1182108284E08C87DF91CF910895E9
:10349000CF92DF92EF92FF920F931F93CF93DF9320
:1034A0007C016B01FC018485843019F5C0E0D0E01B
:1034B00003E014E0C8010E94CB1C882311F088317E
:1034C00019F4F701C48706C0219600501F4FC4307D
:1034D000D10581F7F7018485843059F0D686C586F9
:1034E000128E118E62E0A60120E00E94141B81E082
:1034F00001C080E0DF91CF911F910F91FF90EF907D
:10350000DF90CF900895682F87E394E048E050E083
:103510000E947D1E089590E0982F88278E5F9B4F14
:103520000E94CB1C08951F93182F982F80E08D5F69
:103530009B4F0E94CB1C833111F080E008C087E3D1
:1035400094E0612F42E050E00E947D1E81E01F91D7
:10355000089590E0982F88278E5F9B4F0E948A1CC9
:1035600008951F93182F87E394E0612F40E250E005
:103570000E947D1E0CC0812F0E948B1A83FF07C002
:10358000812F68E10E94A91A20E030E00BC0812F52
:103590000E948B1A84FFEFCF812F60E10E94A91A4D
:1035A00021E030E0C9011F9108951F93182F87E390
:1035B00094E0612F40E150E00E947D1E812F6FEF6B
:1035C0000E94A91A1F910895FF920F931F93F62E40
:1035D000672F082F10E00C5F1F4F102F0027C80126
:1035E00040960E948A1CC80141966F2D0E948A1C39
:1035F0001F910F91FF900895FF920F931F93F62E46
:10360000672F082F10E00C5F1F4F102F0027C801F5
:1036100004960E948A1CC80105966F2D0E948A1C80
:103620001F910F91FF900895FF920F931F93CF93D7
:10363000DF93082FF62EEA01122F862F8150853056
:1036400010F080E024C0802F0E94D51A1F2980E04E
:10365000902F9C5F612F0E948A1C209719F0802F69
:10366000BE010BC060913504709136046F5F7F4FCF
:103670007093360460933504802F0E94FC1A87E310
:1036800094E0602F41E050E00E947D1E81E0DF91D8
:10369000CF911F910F91FF9008951F93CF93DF93C8
:1036A000182FFB01EA018081882349F48181882356
:1036B00031F48281882319F48381882391F0209743
:1036C00081F0912F80E0845F9B4FBF0144E050E088
:1036D0000E94A41C812FBE010E94E41A21E030E068
:1036E00002C020E030E0C901DF91CF911F91089521
:1036F0001F93CF93DF93182FFB01EA0180818F3F47
:1037000051F481818F3F91F482818F3F79F48381DD
:103710008F3F61F423C0882349F48181882331F4E9
:103720008281882319F483818823C1F02097B1F026
:10373000912F80E0845F9B4FBF0144E050E00E94E6
:10374000A41C812FBE010E94E41A87E394E0612F3C
:1037500044E050E00E947D1E81E001C080E0DF91E6
:10376000CF911F910895AF92BF92DF92EF92FF9297
:103770000F931F93CF93DF93D82EEB015A0189014A
:1037800087E394E06D2D0E94B41D8017910710F01F
:10379000780106C087E394E06D2D0E94B41D7C0182
:1037A00087E394E06D2DAE01950187010E94ED1C29
:1037B000C701DF91CF911F910F91FF90EF90DF90A4
:1037C000BF90AF900895AF92BF92DF92EF92FF92B9
:1037D0000F931F93CF93DF93D82E5B018A0188E06C
:1037E0004130580710F000E018E0DD2DC0E0CD5F5B
:1037F000DB4F87E394E06D2D0E94B41D7C01CE0168
:103800000E94CB1C873129F08C3119F000E010E0C8
:1038100003C0E016F10668F387E394E06D2DA5017F
:1038200098010E945E1D87E394E06D2D40E250E018
:103830000E947D1E0BC0CE010E94CB1C882331F458
:103840008D2D0E94D51A00E010E009C08D2D0E9438
:103850008B1A84FFF0CF8D2D60E10E94A91AC80158
:10386000DF91CF911F910F91FF90EF90DF90BF906C
:10387000AF9008950F93282FAB0187E394E0622F58
:1038800021E030E001E00E94321E81E090E00F91E3
:103890000895CF92DF92FF920F931F93CF93DF9300
:1038A000F82E6B018A0187E394E06F2D0E94811D41
:1038B000EC01009769F49F2D80E08D5F9B4F0E9483
:1038C000CB1C8431D9F08823C9F08C31B9F01FC0EA
:1038D000081719070CF4E8011C161D067CF487E391
:1038E00094E06F2DA6019E0100E00E94321E87E346
:1038F00094E06F2D40E450E00E947D1ECE01DF91E8
:10390000CF911F910F91FF90DF90CF900895CFEF4F
:10391000DFEFF4CF282F2A9880EF8EBD0DB407FE7D
:10392000FDCF8EB59EBD0DB407FEFDCF8EB52EBD6D
:103930000DB407FEFDCF8EB56EBD0DB407FEFDCFF5
:103940008EB52A9A81E00895DC0120E030E090EF06
:103950001DC02A989EBD0DB407FEFDCF8EB5BEBD1D
:103960000DB407FEFDCF8EB5AEBD0DB407FEFDCF85
:103970008EB5FB01E20FF31F80818EBD0DB407FEF3
:10398000FDCF11968EB52A9A2F5F3F4F241735072A
:1039900000F3CA010895282F2A988FE08EBD0DB438
:1039A00007FEFDCF8EB59EBD0DB407FEFDCF8EB5D3
:1039B0002EBD0DB407FEFDCF8EB51EBC0DB407FEA7
:1039C000FDCF8EB52A9A089590E00496982F882707
:1039D000860F971F0E94CB1C08957F928F929F9213
:1039E000AF92BF92CF92DF92EF92FF920F931F930D
:1039F000CF93DF936C01762E7A0149015801862F0F
:103A000064E270E00E94E41C182F872D65E270E0EC
:103A10000E94E41CC82FD0E0912F80E0C82BD92B46
:103A2000CE0DDF1DAE015770872D90E0880F991FD6
:103A3000C80ED91EF60120813181240F351FCA011D
:103A40008A0D9B1D8150984098F000E018E0041BFF
:103A5000150BC901B401A8010E94A41CA501401BBB
:103A6000510BF60180819181080D191DB80103C029
:103A7000C901B401A5010E94A41C7E01EA0CFB1C33
:103A8000072D10E00C5F1F4F102F0027C8018496F0
:103A90006F2D0E948A1CC80185966E2D0E948A1C7B
:103AA000DF91CF911F910F91FF90EF90DF90CF901A
:103AB000BF90AF909F908F907F9008950F931F932A
:103AC000FA01890140E050E09F010E94ED1C1F9126
:103AD0000F9108950F931F93182F66E270E00E94D4
:103AE000E41C082F812F67E270E00E94E41C502F35
:103AF00040E0282F30E0242B352BC9011F910F9176
:103B00000895FF920F931F93CF93DF93F62EC0E09B
:103B1000D0E08F2D0E946A1D8C01009721F08F2D1F
:103B20000E946A1DEC01C017D10799F7CE01DF9101
:103B3000CF911F910F91FF9008950F931F93182F0E
:103B400060E270E00E94E41C082F812F61E270E0C7
:103B50000E94E41C502F40E0282F30E0242B352B0E
:103B6000C9011F910F910895FF920F931F93CF9357
:103B7000DF93F62EC0E0D0E08F2D0E949D1D8C01BA
:103B8000009721F08F2D0E949D1DEC01C017D107D9
:103B900099F7CE01DF91CF911F910F91FF9008957A
:103BA000DC0120E030E09FE01DC02A989EBD0DB4EE
:103BB00007FEFDCF8EB5BEBD0DB407FEFDCF8EB5A1
:103BC000AEBD0DB407FEFDCF8EB51EBC0DB407FE15
:103BD000FDCF11968EB5FB01E20FF31F80832A9A69
:103BE0002F5F3F4F2417350700F3CA010895CF9286
:103BF000DF92EF92FF920F931F93CF93DF936901B0
:103C000078015770C62FD0E02496CC0FDD1FC80F67
:103C1000D91F28813981240F351FC801840F951FB2
:103C20008150984088F000E018E0041B150BC90192
:103C3000B601A8010E94D01DE01AF10A888199817D
:103C40000C0D1D1DB80102C0C901B601A7010E94DB
:103C5000D01DDF91CF911F910F91FF90EF90DF90DA
:103C6000CF9008958F929F92AF92BF92CF92DF92A2
:103C7000EF92FF920F931F93CF93DF937C01A62EB9
:103C80006A014901B02E862F68E270E00E94E41CB0
:103C9000182F8A2D69E270E00E94E41CC82FD0E042
:103CA000912F80E0C82BD92BC7016A2DAE01960158
:103CB00084010E94F71DBB2099F47E01E80CF91CD9
:103CC0000A2D10E00C5F1F4F102F0027C8018896A7
:103CD0006F2D0E948A1CC80189966E2D0E948A1C35
:103CE000DF91CF911F910F91FF90EF90DF90CF90D8
:103CF000BF90AF909F908F9008951F93162F962F8F
:103D000080E08F5F9B4F642F0E948A1C812F61E0AF
:103D100070E00E94E41C8823C9F71F9108950F9357
:103D20001F93182F092F6CE271E080E090E00E9451
:103D3000C10E0E94BE22229A80E090E060E80E94BC
:103D40008A1C8BE190E065E50E948A1C8AE190E084
:103D500065E50E948A1C212F302FC901FC0180E0FB
:103D600090E4918380838050904E9187808780502B
:103D70009841329620E68030920799F71F910F9173
:103D80000895FC018281938108950F931F93822FE0
:103D9000062F10E020E030E0322F212F102F0027D7
:103DA00000681068206850E060E070E0BA015527B4
:103DB0004427042B152B262B372B90E0A0E0B0E0F6
:103DC000082B192B2A2B3B2BB801C9011F910F91EE
:103DD0000895EF92FF920F931F93FC0179018A01DE
:103DE0008281938168177907D0F4CB01880F991FDE
:103DF000860F971F24813581280F391FC801AA27F4
:103E0000BB278068F9018193BB27A12F902F8F2DAD
:103E10008068D90111968C938E2D806881831F91C3
:103E20000F91FF90EF9008950F931F93CF93DF931F
:103E3000EC01615C7F4FE6E076956795EA95E1F7E6
:103E40009B01220F331F260F371FA9018E85882360
:103E500041F40BC01EBC0DB407FEFDCF8EB5415022
:103E6000504041155105B1F737C08881890143E0C1
:103E7000000F111F4A95E1F7882399F08F8160E0C8
:103E80000E9412210AC08E8161E00E9412218E815F
:103E900060E00E941221015010400115110599F7B0
:103EA0001BC0EC85FD859081898580958923808361
:103EB000B8010FC0EA85FB8580819885892B8083B6
:103EC000EA85FB8590818885809589238083615070
:103ED00070406115710571F7DF91CF911F910F91BE
:103EE0000895AF92BF92DF92EF92FF920F931F93CC
:103EF000CF93DF93EC018A819B815C01AA0CBB1CF0
:103F0000A80EB91E8E85882391F020E030E00BC00A
:103F1000EC81FD81E20FF31F80818EBD0DB407FEA1
:103F2000FDCF2F5F3F4F2A153B0590F368C0888176
:103F3000882319F440E050E05FC000E010E029C0A1
:103F4000F0E8DF2EEE24FF248D2D90E0EC81FD8142
:103F5000E00FF11F208130E082239323892B19F099
:103F60008F8161E002C08F8160E00E9412218E810A
:103F700061E00E9412218E8160E00E941221D6949D
:103F80000894E11CF11C88E0E816F104E9F60F5FE3
:103F90001F4F0A151B05A0F232C0A0E860E070E0D8
:103FA0008A2F90E0EC81FD81E40FF51F208130E045
:103FB00082239323EC85FD852985892B21F080813F
:103FC000822B808304C08081209528232083EA856A
:103FD000FB8580819885892B8083EA85FB8590818C
:103FE0008885809589238083A6956F5F7F4F683091
:103FF0007105B1F64F5F5F4F4A155B0570F26A813C
:104000007B81CE010E94141F698170E080E090E006
:104010000E94C10EDF91CF911F910F91FF90EF9001
:10402000DF90BF90AF900895EF92FF920F931F9390
:10403000CF93DF938C017B01EB01CC0FDD1FC60F0B
:10404000D71FCE010E946621F801958384830097D3
:1040500049F060E870E0AE010E94A004F801F3822C
:10406000E28203C0F80113821282F80110821786DF
:1040700083E08183DF91CF911F910F91FF90EF90AB
:1040800008950F931F938C010E94BE2281E00E942D
:104090009F2280E00E94A82285E00E94AD22F801C4
:1040A00062817381C8010E94141F1F910F910895AE
:1040B0000F931F93CF93DF93EC01062F142F8F855F
:1040C000813091F48E85813011F40E949B22802FE3
:1040D00061E00E94D320812F61E00E94D3206A8199
:1040E0007B81CE010E94141F1E860F831E83212F09
:1040F00030E0F901E556F94FE491F0E0EE0FFF1FD3
:10410000E957F94F859194919B878A872155394FBB
:10411000F90144914887202F30E0F901E556F94F25
:10412000E491F0E0EE0FFF1FE957F94F859194916C
:104130009D878C872155394FF90164916987DF91FB
:10414000CF911F910F910895EF92FF920F931F93BC
:104150008C01F42EE22E0E941420C8016F2D4E2DEA
:104160000E9458201F910F91FF90EF900895CF93D8
:10417000DF93EC018E85813021F4CE010E94412035
:104180000DC08F8161E00E94D3208E8161E00E948A
:10419000D3206A817B81CE010E94141F81E08F872A
:1041A000DF91CF910895CF93DF93482F50E0CA015C
:1041B0008155994FFC0134914556594FFA0184912C
:1041C000882369F190E0880F991FFC01E358F94FAB
:1041D000A591B491FC01E957F94FC591D49166239B
:1041E00051F42FB7F8948C91932F909589238C9349
:1041F000888189230BC0623061F42FB7F8948C91C9
:10420000932F909589238C938881832B88832FBF4C
:1042100006C09FB7F8948C91832B8C939FBFDF913E
:10422000CF910895482F50E0CA018D53994FFC015A
:104230002491CA018155994FFC0194914556594FDB
:10424000FA013491332309F440C0222351F1233081
:1042500071F0243028F42130A1F0223011F514C07F
:104260002630B1F02730C1F02430D9F404C0809159
:1042700080008F7703C0809180008F7D80938000C5
:1042800010C084B58F7702C084B58F7D84BD09C00E
:104290008091B0008F7703C08091B0008F7D8093B4
:1042A000B000E32FF0E0EE0FFF1FE957F94FA591A3
:1042B000B4912FB7F894662321F48C9190958923BB
:1042C00002C08C91892B8C932FBF08950F931F935D
:1042D000CF93DF93BC018230910510F462E070E06F
:1042E000E0915504F0915604A0E0B0E040E050E0C9
:1042F00024C08081918186179707D0F08617970791
:1043000071F482819381109729F013969C938E9378
:1043100012972CC0909356048093550427C04115E2
:10432000510519F08417950718F4EF018D01AC01C0
:10433000DF01828193819C01F9013097D1F641150B
:104340005105F9F0CA01861B970B8430910580F462
:104350008A819B810115110521F0F80193838283E5
:1043600004C09093560480935504FE01329645C0D4
:10437000FE01E80FF91F6193719302979983888377
:104380003CC08091530490915404892B41F4809156
:104390000E0290910F029093540480935304409125
:1043A0001002509111024115510541F44DB75EB70D
:1043B00080910C0290910D02481B590B20915304DF
:1043C0003091540424173507B0F4CA01821B930BB3
:1043D0008617970780F0AB014E5F5F4F84179507F4
:1043E00050F0420F531F5093540440935304F9016B
:1043F0006193719302C0E0E0F0E0CF01DF91CF91D3
:104400001F910F910895CF93DF939C01009709F4BA
:104410008FC0EC0122971B821A8260915504709123
:1044200056046115710581F488819981820F931F6B
:1044300020915304309154042817390739F5D0934B
:104440005404C093530474C0DB0140E050E0AC1747
:10445000BD0708F1BB83AA83FE0121913191E20FD0
:10446000F31FAE17BF0779F48D919C911197280F18
:10447000391F2E5F3F4F3983288312968D919C916F
:1044800013979B838A834115510571F4D093560489
:10449000C09355044DC012968D919C911397AD0118
:1044A000009711F0DC01D3CFDA011396DC93CE93A1
:1044B0001297FA0121913191E20FF31FCE17DF0716
:1044C00069F488819981280F391F2E5F3F4FFA01C7
:1044D000318320838A819B8193838283E0E0F0E0B3
:1044E000DB0112968D919C911397009719F0BC01F6
:1044F000FD01F6CFAB014E5F5F4FDB018D919C91CB
:10450000840F951F209153043091540428173907C4
:1045100079F4309729F4109256041092550402C091
:1045200013821282425050405093540440935304DB
:10453000DF91CF9108958CB58F7B8CBD0895882332
:1045400019F48CB5806202C08CB58F7D8CBD089546
:104550009CB5937F982B9CBD08952CB5382F337054
:104560002C7F322B3CBD2DB590E095958795959588
:10457000879581702E7F822B8DBD08958AE061E042
:104580000E9412218AE061E00E94D3208CB58061F4
:104590008CBD8CB580648CBD8DE061E00E94D32021
:1045A0008BE061E00E94D32008950F9387E494E0AC
:1045B00060E040E020E000E00E946D110F9108955E
:1045C0009C01FB0182819381A481B581F9018283E1
:1045D0009383A483B583178216820895CF93DF93C4
:1045E000FB0101C0319680818823E1F7EB01A0E057
:1045F000B0E020E030E021C06E3261F42F3F3105A1
:1046000009F07CF5FA01EA0FFB1F2283119620E0E6
:1046100030E012C0C901E3E0880F991FEA95E1F785
:10462000220F331F820F931F262F332727FD30952C
:1046300020533040280F391F21966881662319F0D6
:10464000A430B105CCF22F3F310509F054F4A43069
:10465000B1053CF4A40FB51F12962C9321E030E075
:1046600002C020E030E0C901DF91CF9108950F939F
:104670008DE494E060E040E020E000E00E946D11F5
:104680000F9108952F923F924F925F926F927F9277
:104690008F929F92AF92BF92CF92DF92EF92FF9252
:1046A0000F931F93DF93CF93CDB7DEB769970FB604
:1046B000F894DEBF0FBECDBF4C018B011A010E94E2
:1046C000B30E2B013C01F8E0EF2EF12CE80CF91CA5
:1046D0005801CC24DD2414C00E94B30E641975095E
:1046E00086099709A616B706C806D90618F42FEF4B
:1046F0003FEF0BC162E370E080E090E00E94C10EEA
:10470000C7010E9430191816190634F7F4012281E6
:10471000338144815581818D928DA38DB48D8A879B
:104720009B87AC87BD87281739074A075B0709F0C5
:10473000EAC0858D968DC59709F0E5C000C18E0150
:10474000025F1F4FC701B8014CE050E00E94E21821
:10475000F801528143815B834A83F40126813781CA
:104760008E859F852817390711F457FD06C0C701AC
:104770000E94AA182CEF3FEFC8C04F705270452B13
:1047800031F0C7010E94AA182BEF3FEFBEC0F8011D
:10479000768067806114710441F0AA24BB2448012B
:1047A0002E010894411C511C28C0C7010E94AA1860
:1047B0002AEF3FEFAAC0C701B20141E050E00E94DA
:1047C000E2188981882321F408C0C7010E940519D5
:1047D0008981815089838F5FC1F78981882359F747
:1047E00000E010E0C7010E9405190F5F1F4F043061
:1047F0001105C1F70894A11CB11CF401D480C58037
:10480000AC14BD04C0F244245524C701BE016F5F3F
:104810007F4F41E050E00E94E2189981892F807C0F
:1048200061F4992321F40DC0C7010E940519898103
:10483000815089838F5FC1F704C0C7010E940519A9
:1048400019828981882309F7C701BE016C5F7F4FF8
:1048500042E050E00E94E218C701BE016A5F7F4F4C
:1048600042E050E00E94E21800E010E0C7010E9420
:1048700005190F5F1F4F04301105C1F7C701BE01B5
:104880006E5F7F4F42E050E00E94E218DC80CD80F6
:10489000F1E0CF16D10419F5BE80AF8081E0A816F3
:1048A000B104E9F49A818B81049731F0C7010E9429
:1048B000AA1827EF3FEF29C0E2E0F0E02E0E3F1EDE
:1048C000C701B10144E050E00E94E21821E030E06D
:1048D0001CC0C7010E9405190F5F1F4F02C000E0F6
:1048E00010E09A808B800815190598F30894411CF4
:1048F000511C4614570408F488CFC7010E94AA1817
:1049000026EF3FEF02C02EEF3FEFC90169960FB6C9
:10491000F894DEBF0FBECDBFCF91DF911F910F91F5
:10492000FF90EF90DF90CF90BF90AF909F908F90CF
:104930007F906F905F904F903F902F9008958EE200
:1049400092E099878887C7010E948E180C970CF017
:10495000F6CE2DEF3FEFD9CF6F927F928F929F923D
:10496000AF92BF92CF92DF92EF92FF920F931F937D
:10497000DF93CF9300D00F92CDB7DEB78C01F62E28
:10498000E72E0E94B30EF80177836683B8E0CB2E42
:10499000D12CC00ED11E0A5F1F4FC601B80142E0E4
:1049A00050E00E94841981E090E09B838A83A2E01A
:1049B0008A2E912C8C0E9D1EC601B40142E050E05F
:1049C0000E94841980E091E09B838A83C601B40130
:1049D00042E050E00E9484191B821A82C601B40191
:1049E00042E050E00E948419C601B40142E050E068
:1049F0000E948419C601B40142E050E00E9484196B
:104A00002F2D3E2DC9018C017C013E010894611CB3
:104A1000711C20C00894E11CF11CF70180818823DF
:104A200011F08E32B9F75701A01AB10A1A141B04FB
:104A300074F48E2D801B8983C601B30141E050E0E0
:104A40000E948419C601B801A5010E94841987013A
:104A50000F5F1F4FF7018081882311F07801DDCFB0
:104A60001982C601BE016F5F7F4F41E050E00E9496
:104A7000841900E011E01B830A83C601B40142E0FF
:104A800050E00E9484191B830A83C601B40142E0EE
:104A900050E00E94841981E090E00F900F900F90F9
:104AA000CF91DF911F910F91FF90EF90DF90CF900A
:104AB000BF90AF909F908F907F906F9008958F924E
:104AC0009F92AF92BF92CF92DF92EF92FF920F939D
:104AD0001F93DF93CF9300D000D000D0CDB7DEB7C7
:104AE0006C017B014A010E94EE22892B19F001E042
:104AF00010E067C0F60122813381448155818091A5
:104B00004F0490915004A0915104B0915204281781
:104B100039074A075B0719F40EEF1FEF52C018E080
:104B2000A12EB12CAC0CBD1C0E94B30E9B01AC019C
:104B30002F70307020503C4FC501B9010E94481AB7
:104B4000813019F000E010E03CC08EE292E09A83E0
:104B50008983F60182819381A481B5818B839C83B3
:104B6000AD83BE83C501BE016F5F7F4F45E350E05B
:104B70000E94A4198C01009709F1C601B7010E9497
:104B8000AC248C010097D1F0C5010E949F198C01C3
:104B90000097A1F0EE24FF24C60168E873E1A401A8
:104BA0000E9442238C010894E11CF11CF3E0EF16F3
:104BB000F10421F08FEF0F3F180771F3C5010E9438
:104BC000331AC80126960FB6F894DEBF0FBECDBFCC
:104BD000CF91DF911F910F91FF90EF90DF90CF90D9
:104BE000BF90AF909F908F900895911106C0803232
:104BF00019F089508550D0F708959927882708958E
:104C0000629FD001739FF001829FE00DF11D649FB0
:104C1000E00DF11D929FF00D839FF00D749FF00D3C
:104C2000659FF00D9927729FB00DE11DF91F639FDD
:104C3000B00DE11DF91FBD01CF0111240895AA1B7C
:104C4000BB1B51E107C0AA1FBB1FA617B70710F077
:104C5000A61BB70B881F991F5A95A9F780959095A9
:104C6000BC01CD01089597FB092E07260AD077FDD8
:104C700004D0E5DF06D000201AF4709561957F4FCF
:104C80000895F6F7909581959F4F0895A1E21A2E09
:104C9000AA1BBB1BFD010DC0AA1FBB1FEE1FFF1FE0
:104CA000A217B307E407F50720F0A21BB30BE40B30
:104CB000F50B661F771F881F991F1A9469F7609577
:104CC0007095809590959B01AC01BD01CF01089531
:104CD0002F923F924F925F926F927F928F929F920C
:104CE000AF92BF92CF92DF92EF92FF920F931F93FA
:104CF000CF93DF93CDB7DEB7CA1BDB0B0FB6F894AB
:104D0000DEBF0FBECDBF09942A88398848885F84EA
:104D10006E847D848C849B84AA84B984C884DF805B
:104D2000EE80FD800C811B81AA81B981CE0FD11D3F
:104D30000FB6F894DEBF0FBECDBFED010895EE0FA4
:0E4D4000FF1F0590F491E02D0994F894FFCF29
:104D4E00726164696F00636865636B626F78000DF2
:104D5E000A00696D6167652F782D69636F6E004378
:104D6E00616368652D436F6E74726F6C3A206D616E
:104D7E00782D6167653D33313533363030300D0A6D
:104D8E0000746578742F706C61696E00203A200093
:104D9E006D6F646500696E74657276616C002F7458
:104DAE00697A6F00746578742F68746D6C3B20633C
:104DBE006861727365743D7574662D3800436F6E4D
:104DCE0074656E742D4C656E6774683A0041757427
:104DDE00686F72697A6174696F6E3A000D0A0D0A16
:104DEE00004745542000484541442000504F53543D
:104DFE002000505554200044454C45544520005049
:104E0E0041544348200042617369632000002F72B1
:104E1E006F626F74732E747874002F666176696397
:104E2E006F6E2E69636F0063616C6C696E672072C2
:104E3E0061696E626F772D3330000100020003004E
:104E4E00C0A8C71B02AABBCC0022000480005904D4
:104E5E00000000000000BB0DA30D00000000D710E5
:104E6E00F2116A109E107E10C7100000000088110B
:104E7E0000000000A614BD15AF1593156915BE14DC
:104E8E00DB1551168E1527150315D514DD1479145F
:104E9E0000000000CB1650172718000000009218D3
:104EAE0084198E180519C718AA18481A331AA41986
:0E4EBE00C3199F193019E218711879188A1853
:00000001FF
